:020000040000FA
:020000002C28AA
:02000800CA2804
:10004000FF3FFF3FFF3FFF3FFF3FFF3FFF3FFF3FC0
:10005000FF3FFF3FFF3FFF3F831603130030880041
:10006000850006309F000C140B178B1783120313A7
:100070000030880085009001101490161016A2011F
:10008000A301A401A501A601A701AA01AB01A90131
:10009000A8018E018F01402186195128861D4E2806
:1000A0008228051285110511851602308A00240860
:1000B00000228A018800BC208512851105110516D1
:1000C00002308A00250800228A018800BC2085129F
:1000D00005120511851502308A00260800228A01C2
:1000E00088002A1888172A1C8813BC20851205123C
:1000F0008511051502308A00270800228A01880030
:10010000BC204B2801308A0040218A0186198B28A7
:10011000861D88284B280512851105118516023089
:100120008A00220C00228A018800BC2085128511D9
:100130000511051602308A00230800228A01880072
:10014000BC20851205120511851502308A0024088D
:1001500000228A0188002A1888172A1C8813BC20CC
:10016000851205128511051502308A002508002226
:100170008A018800BC2082280230A000F330A10050
:1001800000000000000000000000A1030319A00B04
:10019000C0280800A800030EA9000C10A20A000045
:1001A000000000000B308F00DE308E00A21C2A10F1
:1001B000A2182A14290E8300A80E280E0900851201
:1001C0000512851105150618E828061CE5281129D1
:1001D0000618F0282708023A031DF028061CEE280E
:1001E0002708003A031DFA288618FA28861CF628E4
:1001F0000230A7008618FF28861CFC28A7032708C2
:10020000033A031D0429A70106190929061D062919
:10021000A70A02308A00270800228A018800BC2031
:10022000DF2885120512051185152608003A031DE1
:100230001F2986182429861C1B290930A600260898
:10024000003A031D292986182E29861C25290330EA
:10025000A60086182E29861C2B29A6032608043AF8
:10026000031D3329A60106193829061D3529A60ABA
:1002700002308A00260800228A018800BC20112949
:10028000013086184629861C43299006013006183D
:100290004D29061C49299006DF200310220C0A3A3A
:1002A000031D5429A201A30A2308063A031D5A2953
:1002B000A301A40A24080A3A031D6029A401A50A7F
:1002C0002508063A031D6629A501A60A2708023A51
:1002D000031D71292608043A031D7729A601A701E9
:1002E000772926080A3A031D7729A601A70A0800DC
:100400000F3982073F3406345B344F3466346D3421
:100410007C3407347F34673477347C3439345E3449
:040420007934713486
:02400E00323F3F
:00000001FF
