:040000008A15002835
:0400060000000800EE
:10000A00103083120313FD00FD0B092800000800BD
:10001A00083083120313FC002330FD00FD0B132864
:06002A00FC0B1328080086
:10003000710DF80DF90D7408F8027508031C750FA1
:10004000F902F00DF10D0F30FC00710DF80DF90DF6
:100050007408701C3128F8027508031C750FF9022A
:100060003628F80775080318750FF907F00DF10D1C
:10007000FC0B2528701842287408F8077508031827
:08008000750FF90700000800EC
:1000880083160313AB1B4B28831288134D28831246
:10009800881783162B1B532883120813552883129D
:1000A80008178316AB1A5B28831288125D288312FF
:1000B800881683162B1A6328831208126528831260
:1000C80008166918692809156A280911891403206E
:1000D80089108316AB197328831288137528831225
:1000E800881783162B197B28831208137D288312FF
:1000F80008178316AB188328831288128528831261
:10010800881683162B188B28831208128D288312C1
:1001180008166918912809159228091189140320CD
:0E0128008910691C99280D209A2805200800CE
:10013600831203137408003A031DAA287508003AAF
:10014600031DAA28FF30F0007F30F1000329831237
:100156000313FD01F901F801710870040319003455
:1001660071087506FA00FA1BFD09FB01F51FC02888
:10017600F409F509F40A0319F50AF11FC728F0096D
:10018600F109F00A0319F10A71087504FA00FA1B5D
:10019600DC2818207B18EF28FD1F0034F009F10930
:1001A600F00A0319F10AF809F909F80A0319F90A14
:1001B6000034F51FEB28F11BE7287108F9007008D9
:1001C600F800F101F001CF28F101F001F00A003446
:1001D600F109F009FB0ACC28F80A0319F90A740890
:1001E6007802031DCF2875087902031DCF28F9016F
:1001F600F801F00A0319F10AF11FCF280000FF34B5
:020206000800EE
:1002080083160313AA03AA032A08003C031811291A
:10021800AA030000000000000829000000000000F8
:06022800000000000800C8
:10022E008316031398181D29000017292A08831214
:04023E00990008001B
:1002420083120313FB01FA01F9018030F800F10C6B
:10025200F00C031C35297408F90775080318750F8B
:10026200FA070318FB0A0310F01F3D297408FA0766
:1002720075080318750FFB07FB0CFA0CF90CF80C48
:10028200031C28297B08F3007A08F2007908F100A0
:060292007808F0000800EE
:0E029800073083120313FD00FD0B50290800F0
:1002A60083120313F801F9011030FC00710DF80DEB
:1002B600F90D7408F8027508031C750FF902031886
:1002C6006B297408F80775080318750FF9070310EA
:0A02D600F00DF10DFC0B5929080092
:1002E00083120313FB01FA01F901F801A001730D58
:1002F000F80D7408F8027508031C750FF9027608EA
:10030000031C760FFA027708031C770FFB0200012B
:10031000031C0130A002F30D0730FC00730DF80D33
:10032000F90DFA0DFB0DA00D7408731CA929F80234
:100330007508031C750FF9027608031C760FFA0284
:100340007708031C770FFB020001031C0130A00299
:10035000BA29F80775080318750FF9077608031806
:10036000760FFA0777080318770FFB0700010318C9
:100370000130A007F30DFC0B8E29720DF80DF90D5D
:10038000FA0DFB0DA00D7408731CD829F80275082E
:10039000031C750FF9027608031C760FFA02770822
:1003A000031C770FFB020001031C0130A002E929A6
:1003B000F80775080318750FF90776080318760F04
:1003C000FA0777080318770FFB07000103180130BD
:1003D000A007F20D0730FC00720DF80DF90DFA0DB3
:1003E000FB0DA00D7408721C072AF8027508031C87
:1003F000750FF9027608031C760FFA027708031CC2
:10040000770FFB020001031C0130A002182AF80735
:1004100075080318750FF90776080318760FFA07A1
:1004200077080318770FFB07000103180130A007B6
:10043000F20DFC0BEC29710DF80DF90DFA0DFB0D09
:10044000A00D7408721C362AF8027508031C750F7B
:10045000F9027608031C760FFA027708031C770F5F
:10046000FB020001031C0130A002472AF8077508AF
:100470000318750FF90776080318760FFA0777083F
:100480000318770FFB07000103180130A007F10DD7
:100490000730FC00710DF80DF90DFA0DFB0DA00DE4
:1004A0007408711C652AF8027508031C750FF9029F
:1004B0007608031C760FFA027708031C770FFB02FD
:1004C0000001031C0130A002762AF8077508031802
:1004D000750FF90776080318760FFA0777080318DF
:1004E000770FFB07000103180130A007F10DFC0B8B
:1004F0004A2A700DF80DF90DFA0DFB0DA00D7408C8
:10050000711C942AF8027508031C750FF90276080D
:10051000031C760FFA027708031C770FFB02000119
:10052000031C0130A002A52AF80775080318750FEF
:10053000F90776080318760FFA0777080318770F7C
:10054000FB07000103180130A007F00D0730FC0085
:10055000700DF80DF90DFA0DFB0DA00D7408701C4F
:10056000C32AF8027508031C750FF9027608031CEC
:10057000760FFA027708031C770FFB020001031CB9
:100580000130A002D42AF80775080318750FF9077F
:1005900076080318760FFA0777080318770FFB071A
:1005A000000103180130A007F00DFC0BA82A7018F9
:1005B000E72A7408F80775080318750FF907760815
:1005C0000318760FFA0777080318770FFB07080060
:1005D000831203132230FC00F801F901FA01FB0138
:1005E000FC0303191E2B0310FB0CFA0CF90CF80C7E
:1005F000F30CF20CF10CF00C031CF02AFC030319B1
:10060000102B7408F80775080318750FF90776089A
:100610000318760FFA0777080318770FFB07F42AF9
:100620007408F80775080318750FF907760803189A
:0E063000760FFA0777080318770FFB0708000C
:10063E00A03083120313F4000F30F500F601F7011A
:10064E007408F0007508F1007608F2007708F300E0
:02065E00080092
:1006600083120313691083162A08AB00442069140F
:02067000080080
:10067200831603131208013EF00000300318013EF6
:10068200F10083126D08F400F50121210630F20019
:100692007008F4007108F50072080319552BF50C67
:1006A200F40CF513FF3E4E2B0430F1007408F000F9
:1006B20071080319602BF00D7010FF3E5A2B303079
:1006C2007005F3007408F0007508F100F10CF00CED
:1006D200F113F10CF00CF113700895000F3097052F
:0606E200730897040800F4
:1006E800831203136F08840020308000840A2030AE
:1006F8008000840A20308000840A20308000840A28
:1007080030308000840A8001840A04306F07831621
:10071800A000003083126E06031D942B00306D0676
:100728000319B92B0A30F400F5016D08F0006E08C2
:10073800F10053217808F0007908F1003030F00713
:10074800831620088400700880000A30F400F50140
:1007580083126D08F0006E08F10053217008ED0057
:0C0768007108EE008316A0038D2B080022
:10077400831203131A08F200981CC22B18121816BD
:0A0784007208F1007108F00008008F
:10078E001F23E830F4000330F500F601F701E822EC
:10079E0070088316A6007108A7007208A8007308D7
:1007AE00A9002008F4002108F500F601F7017021D8
:1007BE0070088316A6007108A7007208A8007308B7
:1007CE00A9007008F5007108F6007208F7007308AA
:1007DE00F800F80CF70CF60CF50CF813F80CF70CF7
:1007EE00F60CF50CF8137508F0007608F100770892
:1007FE00F2007808F300F30CF20CF10CF00CF3138A
:10080E0070088312ED007108EE001F238316220874
:10081E00F4002308F500F601F701E8226D08F9004F
:10082E006E08FA00FB01FC010330F8007908F400B1
:10083E007A08F5007B08F6007C08F70078080319A3
:10084E002F2CF40DF50DF60DF70D7410FF3E262C22
:10085E00702170088316A6007108A7007208A80000
:10086E007308A9000A30F400F50183126D08F00038
:10087E006E08F10053217008ED007108EE00003093
:10088E007102031D4C2C0330700203184F2CC82C20
:10089E006C08840083162908003C031D602C280870
:1008AE00003C031D602C2708003C031D602C26080D
:1008BE00003C0318C52C83126B0880046E08003AA6
:1008CE0003198A2C8316A401A50183126E03EF006F
:1008DE0083162508003C031D772C240883126F0213
:1008EE00031C8A2C8316AA01042100302506031D41
:1008FE00842C83126F088316240603198A2CA40AEB
:10090E000319A50A6C2C83126D088316AA00042104
:10091E0083126A0880056E08003A0319B72C8316F5
:10092E00A401A50183126E03EF0083162508003C77
:10093E00031DA42C240883126F02031CB72C8316EC
:10094E00AA01042100302506031DB12C83126F0865
:10095E00831624060319B72CA40A0319A50A992C89
:10096E0083126D088316AA0004210130A602031C0F
:10097E00A702031CA802031CA902512C83126A08A9
:04098E0080050800D8
:10099200831203139F01C0309F04F03083169F051A
:1009A2001F179F1783126D08F000F00D7010F00DE5
:1009B2007010F00D701070089F041F144C211F1549
:1009C2001F1DE52C0000E12C1F101E08F100F00194
:1009D20083161E0870048312EE007108EF000030C7
:0C09E200EF046E08F0006F08F100080040
:1009EE000030831203138C1A0130F1007108F000ED
:0209FE000800EF
:100A000083120313EE016D0884000008EF006F08E5
:100A1000003A0319162D6F088316AA001721EE0A53
:0E0A20006E086D0784000008EF00072D080027
:100A2E00831203136D08EC006E08F1000130F00024
:100A3E0071080319262DF00D7010FF3E202D700841
:100A4E00EB00F0097008EA0080306D078400700832
:0A0A5E00800584137008800508006D
:100A6800FF3083120313E600FF30E700FF30E80091
:100A7800FF309F01C0309F04F03083169F051F1779
:080A88009F1783121F140800E0
:100A9000831603138910091108128812081388138A
:100AA00083128910091188130813881208120D2067
:100AB0000D200D20881608168914032089100D209A
:100AC0008914032089100D208914032089100D201A
:100AD00008128914032089100D208914032089101D
:100AE000881288178914032089100D20881308168E
:100AF00089140320891008128914032089100D20FD
:100B000089140320891008168914032089100D20E8
:100B100008128914032089108817081788160816E8
:0C0B20008914032089100D2069140800BE
:100B2C00831203136E08803A031D9E2D00306D0650
:100B3C00031DB72D6F0884002D308000840A3330DC
:100B4C008000840A32308000840A37308000840AA6
:100B5C0036308000840A38308000840A8001840A90
:100B6C001F2E8316A101803083126E06F000803098
:100B7C007002031DC32D00306D020318D12DFF3000
:100B8C008316A10083126D08003CED006E08031C57
:100B9C00013EEE01EE026F08840020308000840AD2
:100BAC0020308000840A20308000840A20308000AD
:100BBC00840A20308000840A30308000840A80014E
:100BCC00840A05306F078316A000003083126E066E
:100BDC00031DF22D00306D060319172E0A30F40098
:100BEC00F5016D08F0006E08F1009B207808F0000C
:100BFC007908F1003030F007831620088400700863
:100C0C0080000A30F400F50183126D08F0006E08C4
:100C1C00F1009B207008ED007108EE008316A00314
:100C2C00EB2D8316210803191F2E200884002D306C
:040C3C00800008002C
:0C0C40008312031395011712971208008D
:100C4C00831203136D08013A031D2F2E8030ED0023
:100C5C00462E6D08023A031D362EC030ED00462E8E
:100C6C006D08033A031D3D2E9430ED00462E6D08A1
:100C7C00043A031D442ED430ED00462E8030ED0096
:100C8C006E03F0006D08F0077008ED007008831615
:100C9C00AB00442069108316A001200883126F0753
:100CAC0084000008003A0319672E8316200883126B
:100CBC006F07840000088316AA0030238316A00A4D
:080CCC00532E83126914080085
:100CD400831603130711831212150C3097040800AE
:100CE400831603139816903083129800831687177F
:100CF400071383128C1E812E1A08F0007B2E080025
:1010000083160313860183128601831687018312D8
:101010008701CD01CE01CF01D0013030CC00193095
:10102000D200D101B201B3014D30A1006930A2005C
:101030006330A3007230A4006F30A5006330A600B7
:101040006F30A7006E30A8007430A9007230AA007B
:101050006F30AB006C30AC006130AD006430AE007E
:101060006F30AF007230B000B101BD01B401653026
:10107000DE007830DF006130E0006D30E10070307C
:10108000E2006C30E3006530E400E5014630D90051
:101090006F30DA006930DB00DC018A1134258A15F3
:1010A0008A1148258A158A116A268A15121092100B
:1010B00012109210C730831692008A1120268A15CA
:1010C00019308316990018158A1172268A15013075
:1010D0008316AB008A1144208A150C308316AB00AE
:1010E0008A1144208A150730ED000130EE008A1184
:1010F00017258A150130ED000130EE002130EF0098
:101100008A1126268A158A11F7248A157008003A52
:101110000319732A8A11BA238A157008CC0001308A
:10112000ED000130EE002130EF008A1126268A15ED
:101130004C088316AA008A1117218A150A308316D3
:10114000AA008A1117218A150D308316AA008A1168
:1011500017218A154C08613A031DAF2886144C08E4
:10116000413A031DB42886104C084F3A031DBD2890
:10117000861DBC288611BD2886154C086D3A031DB6
:1011800075290608003A031DEE283030BD003030C6
:10119000BE003030BF003030C0003030C1003030D1
:1011A000C2003030C3003030C400C50101308316A6
:1011B000AB008A1144208A150130ED000130EE00A9
:1011C0002130EF008A1126268A150230ED00013009
:1011D000EE003D30EF008A1126268A150608023AF5
:1011E000031D1B293030BD003030BE003030BF0041
:1011F0003030C0003030C1003030C2003130C30068
:101200003030C400C50101308316AB008A11442080
:101210008A150130ED000130EE002130EF008A1117
:1012200026268A150230ED000130EE003D30EF0039
:101230008A1126268A1506080A3A031D48293030E5
:10124000BD003030BE003030BF003030C000313023
:10125000C1003030C2003130C3003030C400C5019D
:1012600001308316AB008A1144208A150130ED004D
:101270000130EE002130EF008A1126268A15023057
:10128000ED000130EE003D30EF008A1126268A1570
:101290000608083A031D75293030BD003030BE0005
:1012A0003030BF003030C0003130C1003030C200BB
:1012B0003030C3003030C400C50101308316AB00AC
:1012C0008A1144208A150130ED000130EE002130F2
:1012D000EF008A1126268A150230ED000130EE005B
:1012E0003D30EF008A1126268A154C084D3A031D21
:1012F000912901308316AB008A1144208A150230EF
:10130000ED000130EE005930EF008A1126268A15D3
:101310000130ED000130EE002130EF008A11262669
:101320008A154C08533A031DA129B8308316A00032
:101330000B30A100E830A2000330A3008A11C723BC
:101340008A154C08443A031DC929ED018A11C924A4
:101350008A157008B2007108B3007008ED007108BA
:10136000EE003D30EF008A1174238A153D30831260
:101370000313ED008A1100258A150A308316AA008E
:101380008A1117218A150D308316AA008A11172198
:101390008A154C08543A031D1D2A0230ED008A11AB
:1013A000C9248A157008D5007108D600D701D80164
:1013B0005508F0005608F1005708F2005808F300ED
:1013C0000530F400F501F601F7018A11E8228A15CB
:1013D0006430F400F501F601F7018A11E8228A155C
:1013E000FF30F4000330F500F601F7018A11702197
:1013F0008A157008D5007108D6007208D7007308E6
:10140000D8007008ED007108EE005E30EF008A1120
:1014100096258A155E3083120313ED008A1100258C
:101420008A150A308316AA008A1117218A150D30F1
:101430008316AA008A1117218A154C08743A031DD5
:10144000262A871E252A8712262A87164C08633AE1
:10145000031D302AD301D401ED018A1139238A15E5
:101460004C08433A031D3F2A0130D300D4015208EF
:10147000ED008A1139238A158A116A268A150030EF
:101480005406031D452A01305306031D592AFF3017
:1014900052020318592A4C082B3A031D592A0A30C4
:1014A0005207F0007008D2007008ED008A1139234D
:1014B0008A1500305406031D5F2A01305306031DB0
:1014C000732A5208053C0318732A4C082D3A031D51
:1014D000732A0A305202F0007008D2007008ED0042
:1014E0008A1139238A158230FC00DD30FD00FD0BA6
:0E14F000772AFC0B772A0000000083287E2A52
:02400E004A2F37
:00000001FF
